:1000000010C02AC029C028C027C026C025C024C0CF
:1000100023C022C021C020C01FC01EC01DC01CC0E4
:100020001BC011241FBECFE5D2E0DEBFCDBF10E064
:10003000A0E6B0E0EEE8F7E002C005900D92AA3924
:10004000B107D9F720E0AAE9B0E001C01D92A03ABB
:10005000B207E1F765D099C3D3CFDE9ADC9AD49A80
:10006000D69A8FEF8FB98AE28DB980EF8EB9089555
:100070008BE200008DB9CC9BFECF00008DB9769B42
:10008000F8CF00008FB19FEF9FB9D69A0895D69808
:100090008EEF8EB9EDDF81700895DC9890EF9EB9F8
:1000A0008FB9E6DFF4DF91E0811190E0892F0895A8
:1000B000DC9ACC9BFECF0000DE980000DC98DE9A34
:1000C0000895DE98DC9ACC9BFECF0000DE9A0000FB
:1000D0000895FF920F931F93CF93DF93C82FF62EAF
:1000E000072F142FE5DF8C2F880FD7DFCF2DD02FD0
:1000F000811108C086E090E00AC08991CEDF1150DE
:10010000882359F01111F9CFDCDF90E080E0DF9116
:10011000CF911F910F91FF90089585E090E0F7CF68
:10012000CF93DF9300D01F92CDB7DEB780916E00E2
:1001300090916F00A091700089839A83AB833CD02B
:100140008CDF00E810E081E7E82E80E0F82E6E01F9
:1001500024E0C20ED11C91E6B92E8FE39DE023E08E
:10016000815090402040E1F700C0000043E0BE0114
:100170006F5F7F4F8DE2ADDF0097B9F489811F92E9
:100180008F93FF92EF9244D00F900F900F900F90AB
:10019000FE01319681918F5FDF0111978B3750F40B
:1001A0008C93EC15FD05B1F7D8CF9F938F931F93D8
:1001B0000F93E9CFBC92F5CFD89AD09A80E690E021
:1001C00090939D0080939C000895CF93DF939FB7F9
:1001D000F894D89AD09AD8980BB2E3E0CFE0DC2F0D
:1001E000DA95F1F780FB00F8E69587950BBAB9F739
:1001F0009FBFDF91CF910895CF93C82F8A3011F41C
:100200008DE0FADF8C2FE1DF90E080E0CF91089560
:10021000A0E0B0E0EDE0F1E091C2AE014B5F5F4FD6
:10022000FA0161917191AF0180919C0090919D00C4
:1002300002D0E2E09FC2ACE0B0E0E0E2F1E06EC2EA
:100240006C017B018A01FC0117821682838181FF88
:10025000B1C1CE0101964C01F6019381F70193FDE6
:10026000859193FF81917F01882309F49FC1853295
:1002700039F493FD859193FF81917F01853221F4BB
:10028000B60190E0B2D1E8CF512C312C20E02032E1
:10029000A0F48B3269F030F4803259F0833269F483
:1002A00020612CC08D3239F0803339F4216026C0B2
:1002B0002260246023C0286021C027FD27C030EDC4
:1002C000380F3A3078F426FF06C0852D6AE01DD23B
:1002D000532E580E13C0832D6AE017D2332E380EDA
:1002E00020620CC08E3221F426FD60C1206406C05D
:1002F0008C3611F4206802C0883641F4F70193FD72
:10030000859193FF81917F018111C1CF982F9F7DAE
:100310009554933028F40C5F1F4FFFE3F9830DC011
:10032000833631F0833771F0833509F057C021C02F
:10033000F801808189830E5F1F4F44244394512C20
:10034000540114C03801F2E06F0E711CF801A08056
:10035000B18026FF03C0652D70E002C06FEF7FEF14
:10036000C5012C8737D12C0183012C852F77222EB4
:1003700016C03801F2E06F0E711CF801A080B18048
:1003800026FF03C0652D70E002C06FEF7FEFC5014F
:100390002C8715D12C012C852068222E830123FC6B
:1003A00019C0832D90E048165906A0F4B60180E2EA
:1003B00090E01BD13A94F5CFF50127FC859127FEFB
:1003C00081915F01B60190E010D131103A94F1E0D3
:1003D0004F1A51084114510479F7DFC0843611F0E7
:1003E000893631F5F80127FF07C06081718182816C
:1003F00093810C5F1F4F08C060817181072E000C34
:10040000880B990B0E5F1F4F2F76722E97FF09C036
:1004100090958095709561957F4F8F4F9F4F206885
:10042000722E2AE030E0A40110D1A82EA81843C0F3
:10043000853729F42F7EB22E2AE030E025C0F22F36
:10044000F97FBF2E8F36C1F018F4883579F0AEC031
:10045000803719F0883721F0A9C02F2F2061B22EE4
:10046000B4FE0DC08B2D8460B82E09C024FF0AC0D5
:100470009F2F9660B92E06C028E030E005C020E12D
:1004800030E002C020E132E0F801B7FE07C0608131
:100490007181828193810C5F1F4F06C060817181E1
:1004A00080E090E00E5F1F4FA401CFD0A82EA818C7
:1004B000FB2DFF777F2E76FE0BC0372D3E7FA514D8
:1004C00050F474FE0AC072FC08C0372D3E7E05C091
:1004D000BA2C372D03C0BA2C01C0B52C34FF0DC087
:1004E000FE01EA0DF11D8081803311F4397E09C0CF
:1004F00032FF06C0B394B39404C0832F867809F00A
:10050000B39433FD12C030FF06C0B31490F43A0C1C
:10051000532C5B180FC0B31468F4B60180E290E06E
:100520003C8763D0B3943C85F6CFB31418F43B18E2
:1005300002C05A2C312C34FF11C0B60180E390E088
:100540003C8753D03C8532FF16C031FD03C088E79D
:1005500090E002C088E590E0B6010CC0832F867859
:1005600051F031FF02C08BE201C080E237FD8DE225
:10057000B60190E03AD0A51430F4B60180E390E0E3
:1005800034D05A94F8CFAA94F401EA0DF11D808179
:10059000B60190E02AD0A110F6CF332009F45CCE4A
:1005A000B60180E290E021D03A94F7CFF60186813F
:1005B000978102C08FEF9FEF2C96E2E1CBC0FC0148
:1005C0000590615070400110D8F7809590958E0F7E
:1005D0009F1F0895FC016150704001900110D8F7F1
:1005E000809590958E0F9F1F08950F931F93CF9323
:1005F000DF93182F092FEB018B8181FD03C08FEF53
:100600009FEF1EC082FF0FC02E813F818C819D8194
:100610002817390774F4E881F981CF01019699838D
:100620008883108306C0E885F985812F0995892B79
:1006300031F78E819F8101969F838E83812F902F2A
:10064000DF91CF911F910F910895FA01AA272830C9
:1006500061F1203191F1E8946F936E7F6E5F7F4F6F
:100660008F4F9F4FAF4FB1E040D0B4E03ED0670F07
:10067000781F891F9A1FA11D680F791F8A1F911D5E
:10068000A11D6A0F711D811D911DA11D22D009F4AC
:1006900068943F91062E000C3019000C000C3019A4
:1006A000305D3193CEF6CF010895462F4770405DFF
:1006B0004193B3E00FD0C9F7F6CF462F4F70405D9E
:1006C0004A3318F0495D31FD4052419302D0A9F7F9
:1006D000EACFB4E0A6959795879577956795BA95F3
:1006E000C9F700976105710508959B01AC010A2EB9
:1006F00006945795479537952795BA95C9F7620F90
:10070000731F841F951FA01D0895002480FD060EF1
:10071000660F11F08695D1F7802D08952F923F92A4
:100720004F925F926F927F928F929F92AF92BF9201
:10073000CF92DF92EF92FF920F931F93CF93DF93AD
:10074000CDB7DEB7CA1BDB0B0FB6F894DEBF0FBE0A
:10075000CDBF09942A88398848885F846E847D8457
:100760008C849B84AA84B984C884DF80EE80FD8059
:100770000C811B81AA81B981CE0FD11D0FB6F894CF
:0E078000DEBF0FBECDBFED010895F894FFCF90
:10078E000000000200000000FC000000000061629A
:10079E0063446174612073656E743A2025630A00A8
:1007AE0053656E64696E6720646174612066616969
:0A07BE006C65643A2025750A0000FE
:00000001FF
